:020000040800F2
:100000000050002059190008351700083D17000856
:10001000451700084D17000855170008000000009C
:100020000000000000000000000000005D17000854
:100030006917000800000000751700088117000804
:10004000A1190008A1190008A1190008A1190008A8
:10005000A1190008A1190008A1190008A119000898
:10006000A1190008A1190008A1190008A119000888
:10007000A1190008A1190008A11900088D1700088E
:10008000A1190008A1190008A1190008A119000868
:10009000A1190008A1190008A1190008A119000858
:1000A000A1190008A1190008A1190008A119000848
:1000B000A1190008A1190008A1190008A119000838
:1000C000A1190008A1190008A1190008A119000828
:1000D000A1190008A1170008B5170008A119000808
:1000E000A1190008A1190008A119000800000000CA
:1000F0000000000000000000000000000000000000
:0C01000000000000000000005FF808F1A3
:1001100010B5054C237833B9044B13B10448AFF341
:1001200000800123237010BDFC01002000000000AE
:1001300024A7000808B5034B1BB103490348AFF3DC
:10014000008008BD000000000002002024A7000875
:10015000034613F8012B002AFBD1181A0138704707
:1001600081F0004102E000BF83F0004330B54FEA68
:1001700041044FEA430594EA050F08BF90EA020FD5
:100180001FBF54EA000C55EA020C7FEA645C7FEA68
:10019000655C00F0E2804FEA5454D4EB5555B8BF8B
:1001A0006D420CDD2C4480EA020281EA030382EAFC
:1001B000000083EA010180EA020281EA0303362D8E
:1001C00088BF30BD11F0004F4FEA01314FF4801C61
:1001D0004CEA113102D0404261EB410113F0004F73
:1001E0004FEA03334CEA133302D0524263EB43032A
:1001F00094EA050F00F0A780A4F10104D5F1200EC8
:100200000DDB02FA0EFC22FA05F2801841F1000122
:1002100003FA0EF2801843FA05F359410EE0A5F1F6
:1002200020050EF1200E012A03FA0EFC28BF4CF027
:10023000020C43FA05F3C01851EBE37101F00045DD
:1002400007D54FF0000EDCF1000C7EEB00006EEBEA
:100250000101B1F5801F1BD3B1F5001F0CD3490874
:100260005FEA30004FEA3C0C04F101044FEA4452CB
:1002700012F5800F80F09A80BCF1004F08BF5FEA52
:10028000500C50F1000041EB045141EA050130BD32
:100290005FEA4C0C404141EB0101013C28BFB1F544
:1002A000801FE9D291F0000F04BF01460020B1FA8F
:1002B00081F308BF2033A3F10B03B3F120020CDA62
:1002C0000C3208DD02F1140CC2F10C0201FA0CF040
:1002D00021FA02F10CE002F11402D8BFC2F1200CA5
:1002E00001FA02F120FA0CFCDCBF41EA0C0190405B
:1002F000E41AA2BF01EB0451294330BD6FEA0404A4
:100300001F3C1CDA0C340EDC04F11404C4F120028E
:1003100020FA04F001FA02F340EA030021FA04F3A0
:1003200045EA030130BDC4F10C04C4F1200220FAF7
:1003300002F001FA04F340EA0300294630BD21FA35
:1003400004F0294630BD94F0000F83F4801306BFFB
:1003500081F480110134013D4EE77FEA645C18BFEF
:100360007FEA655C29D094EA050F08BF90EA020F86
:1003700005D054EA000C04BF1946104630BD91EA7E
:10038000030F1EBF0021002030BD5FEA545C05D181
:100390004000494128BF41F0004130BD14F58004C0
:1003A0003CBF01F5801130BD01F0004545F0FE4134
:1003B00041F470014FF0000030BD7FEA645C1ABF69
:1003C000194610467FEA655C1CBF0B46024650EAA0
:1003D000013406BF52EA033591EA030F41F40021CC
:1003E00030BD00BF90F0000F04BF0021704730B552
:1003F0004FF4806404F132044FF000054FF0000127
:1004000050E700BF90F0000F04BF0021704730B5E7
:100410004FF4806404F1320410F0004548BF4042BC
:100420004FF000013EE700BF42004FEAE2014FEA11
:1004300031014FEA02701FBF12F07F4393F07F4FEC
:1004400081F06051704732F07F4208BF704793F0EF
:100450007F4F04BF41F40021704730B54FF4607402
:1004600001F0004521F000411CE700BF50EA010205
:1004700008BF704730B54FF000050AE050EA0102AE
:1004800008BF704730B511F0004502D5404261EB1E
:1004900041014FF4806404F132045FEA915C3FF45F
:1004A000D8AE4FF003025FEADC0C18BF03325FEAFC
:1004B000DC0C18BF033202EBDC02C2F1200300FAAD
:1004C00003FC20FA02F001FA03FE40EA0E0021FAD2
:1004D00002F11444BDE600BF70B54FF0FF0C4CF4C0
:1004E000E06C1CEA11541DBF1CEA135594EA0C0F72
:1004F00095EA0C0F00F0DEF82C4481EA030621EAAD
:100500004C5123EA4C5350EA013518BF52EA0335E7
:1005100041F4801143F4801338D0A0FB02CE4FF099
:100520000005E1FB02E506F00042E0FB03E54FF0C9
:100530000006E1FB03569CF0000F18BF4EF0010EC1
:10054000A4F1FF04B6F5007F64F5407404D25FEABD
:100550004E0E6D4146EB060642EAC62141EA555170
:100560004FEAC52040EA5E504FEACE2EB4F1FD0CB2
:1005700088BFBCF5E06F1ED8BEF1004F08BF5FEA30
:10058000500E50F1000041EB045170BD06F00046E2
:1005900046EA010140EA020081EA0301B4EB5C048F
:1005A000C2BFD4EB0C0541EA045170BD41F4801187
:1005B0004FF0000E013C00F3AB8014F1360FDEBFAC
:1005C000002001F0004170BDC4F10004203C35DA88
:1005D0000C341BDC04F11404C4F1200500FA05F30B
:1005E00020FA04F001FA05F240EA020001F00042AC
:1005F00021F0004110EBD37021FA04F642EB060122
:100600005EEA430E08BF20EAD37070BDC4F10C044B
:10061000C4F1200500FA04F320FA05F001FA04F20F
:1006200040EA020001F0004110EBD37041F10001FB
:100630005EEA430E08BF20EAD37070BDC4F1200506
:1006400000FA05F24EEA020E20FA04F301FA05F26E
:1006500043EA020321FA04F001F0004121FA04F216
:1006600020EA020000EBD3705EEA430E08BF20EAE6
:10067000D37070BD94F0000F0FD101F00046400020
:1006800041EB010111F4801F08BF013CF7D041EAA2
:10069000060195F0000F18BF704703F000465200A6
:1006A00043EB030313F4801F08BF013DF7D043EA77
:1006B0000603704794EA0C0F0CEA135518BF95EA2D
:1006C0000C0F0CD050EA410618BF52EA4306D1D1B4
:1006D00081EA030101F000414FF0000070BD50EAD3
:1006E000410606BF1046194652EA430619D094EA5D
:1006F0000C0F02D150EA013613D195EA0C0F05D147
:1007000052EA03361CBF104619460AD181EA03019A
:1007100001F0004141F0FE4141F470014FF0000052
:1007200070BD41F0FE4141F4780170BD70B54FF0ED
:10073000FF0C4CF4E06C1CEA11541DBF1CEA13556D
:1007400094EA0C0F95EA0C0F00F0A7F8A4EB05044F
:1007500081EA030E52EA03354FEA013100F0888046
:100760004FEA03334FF0805545EA131343EA12630F
:100770004FEA022245EA111545EA10654FEA0026C4
:100780000EF000419D4208BF964244F1FD0404F57D
:10079000407402D25B084FEA3202B61A65EB0305D9
:1007A0005B084FEA32024FF480104FF4002CB6EB96
:1007B000020E75EB030E22BFB61A754640EA0C0016
:1007C0005B084FEA3202B6EB020E75EB030E22BF56
:1007D000B61A754640EA5C005B084FEA3202B6EB97
:1007E000020E75EB030E22BFB61A754640EA9C0056
:1007F0005B084FEA3202B6EB020E75EB030E22BF26
:10080000B61A754640EADC0055EA060E18D04FEAE3
:10081000051545EA16754FEA06164FEAC30343EA83
:1008200052734FEAC2025FEA1C1CC0D111F4801F50
:100830000BD141EA00014FF000004FF0004CB6E749
:1008400011F4801F04BF01430020B4F1FD0C88BFE8
:10085000BCF5E06F3FF6AFAEB5EB030C04BFB6EBF3
:10086000020C5FEA500C50F1000041EB045170BDE6
:100870000EF0004E4EEA113114EB5C04C2BFD4EB13
:100880000C0541EA045170BD41F480114FF0000E97
:10089000013C90E645EA060E8DE60CEA135594EA13
:1008A0000C0F08BF95EA0C0F3FF43BAF94EA0C0F16
:1008B0000AD150EA01347FF434AF95EA0C0F7FF48B
:1008C00025AF104619462CE795EA0C0F06D152EADF
:1008D00003353FF4FDAE1046194622E750EA4106C3
:1008E00018BF52EA43067FF4C5AE50EA41047FF4D4
:1008F0000DAF52EA43057FF4EBAE12E74FF0FF3C39
:1009000006E000BF4FF0010C02E000BF4FF0010C09
:100910004DF804CD4FEA410C7FEA6C5C4FEA430C82
:1009200018BF7FEA6C5C1BD001B050EA410C0CBFD1
:1009300052EA430C91EA030F02BF90EA020F002033
:10094000704710F1000F91EA030F58BF994208BF9A
:1009500090422CBFD8176FEAE37040F00100704757
:100960004FEA410C7FEA6C5C02D150EA013C07D1AE
:100970004FEA430C7FEA6C5CD6D152EA033CD3D0F9
:100980005DF8040B704700BF8446104662468C46F3
:100990001946634600E000BF01B5FFF7B7FF002826
:1009A00048BF10F1000F01BD4DF808EDFFF7F4FF4F
:1009B0000CBF012000205DF808FB00BF4DF808EDDA
:1009C000FFF7EAFF34BF012000205DF808FB00BFFD
:1009D0004DF808EDFFF7E0FF94BF012000205DF81F
:1009E00008FB00BF4DF808EDFFF7CEFF94BF0120D4
:1009F00000205DF808FB00BF4DF808EDFFF7C4FFCD
:100A000034BF012000205DF808FB00BF4FEA410C15
:100A10007FEA6C5C02D150EA013C0AD14FEA430CF8
:100A20007FEA6C5C02D152EA033C02D14FF0000035
:100A300070474FF0010070474FEA410212F5001273
:100A400015D211D56FF47873B3EB625212D94FEA15
:100A5000C12343F0004343EA505311F0004F23FAFF
:100A600002F018BF404270474FF00000704750EA54
:100A7000013005D111F0004008BF6FF00040704711
:100A80004FF00000704700BF4A0011D212F500126B
:100A900011D20DD56FF47873B3EB62520ED44FEAD6
:100AA000C12343F0004343EA505323FA02F0704756
:100AB0004FF00000704750EA013002D14FF0FF3094
:100AC00070474FF0000070474FEA4102B2F1E04337
:100AD00024BFB3F5001CDCF1FE5C0DD901F0004C25
:100AE0004FEAC0024CEA5070B2F1004F40EB830075
:100AF00008BF20F00100704711F0804F21D113F1A1
:100B00003872BCBF01F00040704741F480114FEAD9
:100B10005252C2F11802C2F1200C10FA0CF320FA62
:100B200002F018BF40F001004FEAC1234FEAD3237F
:100B300003FA0CFC40EA0C0023FA02F34FEA4303E9
:100B4000CCE77FEA625307D150EA01331EBF4FF072
:100B5000FE4040F44000704701F0004040F0FE408D
:100B600040F40000704700BF80F0004002E000BF8A
:100B700081F0004142001FBF5FEA410392EA030F88
:100B80007FEA226C7FEA236C6AD04FEA1262D2EBD2
:100B90001363C1BFD218414048404140B8BF5B42D7
:100BA000192B88BF704710F0004F40F4000020F070
:100BB0007F4018BF404211F0004F41F4000121F086
:100BC0007F4118BF494292EA030F3FD0A2F10102D0
:100BD00041FA03FC10EB0C00C3F1200301FA03F10E
:100BE00000F0004302D5494260EB4000B0F5000F31
:100BF00013D3B0F1807F06D340084FEA310102F1F0
:100C00000102FE2A51D2B1F1004F40EBC25008BFA1
:100C100020F0010040EA03007047490040EB00006B
:100C2000013A28BFB0F5000FEDD2B0FA80FCACF16C
:100C3000080CB2EB0C0200FA0CF0AABF00EBC25099
:100C400052421843BCBFD0401843704792F0000F87
:100C500081F4000106BF80F400000132013BB5E7DA
:100C60004FEA41037FEA226C18BF7FEA236C21D050
:100C700092EA030F04D092F0000F08BF08467047B5
:100C800090EA010F1CBF0020704712F07F4F04D183
:100C9000400028BF40F00040704712F100723CBF96
:100CA00000F50000704700F0004343F0FE4040F4C0
:100CB000000070477FEA226216BF08467FEA23637E
:100CC0000146420206BF5FEA412390EA010F40F469
:100CD000800070474FF0000304E000BF10F00043B5
:100CE00048BF40425FEA000C08BF704743F096439C
:100CF00001464FF000001CE050EA010208BF7047B7
:100D00004FF000030AE000BF50EA010208BF70473D
:100D100011F0004302D5404261EB41015FEA010C52
:100D200002BF84460146002043F0B64308BFA3F14A
:100D30008053A3F50003BCFA8CF2083AA3EBC2532C
:100D400010DB01FA02FC634400FA02FCC2F120024B
:100D5000BCF1004F20FA02F243EB020008BF20F082
:100D60000100704702F1200201FA02FCC2F12002E8
:100D700050EA4C0021FA02F243EB020008BF20EADD
:100D8000DC7070474FF0FF0C1CEAD0521EBF1CEA0B
:100D9000D15392EA0C0F93EA0C0F6FD01A4480EAF9
:100DA000010C400218BF5FEA41211ED04FF00063E2
:100DB00043EA501043EA5111A0FB01310CF000400E
:100DC000B1F5000F3EBF490041EAD3715B0040EA34
:100DD000010062F17F02FD2A1DD8B3F1004F40EB04
:100DE000C25008BF20F00100704790F0000F0CF0D7
:100DF000004C08BF49024CEA502040EA51207F3A9B
:100E0000C2BFD2F1FF0340EAC250704740F4000075
:100E10004FF00003013A5DDC12F1190FDCBF00F066
:100E200000407047C2F10002410021FA02F1C2F114
:100E3000200200FA02FC5FEA310040F1000053EAB0
:100E40004C0308BF20EADC70704792F0000F00F0FE
:100E5000004C02BF400010F4000F013AF9D040EA04
:100E60000C0093F0000F01F0004C02BF490011F498
:100E7000000F013BF9D041EA0C018FE70CEAD15396
:100E800092EA0C0F18BF93EA0C0F0AD030F0004C16
:100E900018BF31F0004CD8D180EA010000F00040CA
:100EA000704790F0000F17BF90F0004F084691F088
:100EB000000F91F0004F14D092EA0C0F01D14202C2
:100EC0000FD193EA0C0F03D14B0218BF084608D18B
:100ED00080EA010000F0004040F0FE4040F40000D5
:100EE000704740F0FE4040F4400070474FF0FF0C68
:100EF0001CEAD0521EBF1CEAD15392EA0C0F93EAAF
:100F00000C0F69D0A2EB030280EA010C49024FEA00
:100F1000402037D04FF0805343EA111143EA1013B9
:100F20000CF000408B4238BF5B0042F17D024FF471
:100F3000000C8B4224BF5B1A40EA0C00B3EB510F4C
:100F400024BFA3EB510340EA5C00B3EB910F24BF35
:100F5000A3EB910340EA9C00B3EBD10F24BFA3EBBA
:100F6000D10340EADC001B0118BF5FEA1C1CE0D182
:100F7000FD2A3FF650AF8B4240EBC25008BF20F035
:100F8000010070470CF0004C4CEA50207F32C2BF89
:100F9000D2F1FF0340EAC250704740F400004FF026
:100FA0000003013A37E792F0000F00F0004C02BF57
:100FB000400010F4000F013AF9D040EA0C0093F021
:100FC000000F01F0004C02BF490011F4000F013B7B
:100FD000F9D041EA0C0195E70CEAD15392EA0C0FE3
:100FE00008D142027FF47DAF93EA0C0F7FF470AF1B
:100FF000084676E793EA0C0F04D14B023FF44CAF5E
:1010000008466EE730F0004C18BF31F0004CCAD1F2
:1010100030F000427FF45CAF31F000437FF43CAF2E
:101020005FE700BF4FF0FF3C06E000BF4FF0010C50
:1010300002E000BF4FF0010C4DF804CD4FEA400232
:101040004FEA41037FEA226C18BF7FEA236C11D07C
:1010500001B052EA530C18BF90EA010F58BFB2EB2F
:10106000030088BFC81738BF6FEAE17018BF40F0AF
:10107000010070477FEA226C02D15FEA402C05D163
:101080007FEA236CE4D15FEA412CE1D05DF8040BE8
:10109000704700BF844608466146FFE70FB5FFF77B
:1010A000C9FF002848BF10F1000F0FBD4DF808ED33
:1010B000FFF7F4FF0CBF012000205DF808FB00BF24
:1010C0004DF808EDFFF7EAFF34BF012000205DF87E
:1010D00008FB00BF4DF808EDFFF7E0FF94BF0120CB
:1010E00000205DF808FB00BF4DF808EDFFF7D2FFC8
:1010F00094BF012000205DF808FB00BF4DF808ED0B
:10110000FFF7C8FF34BF012000205DF808FB00BFD7
:101110004FEA4002B2F1FE4F0FD34FF09E03B3EB04
:1011200012620DD94FEA002343F0004310F0004F44
:1011300023FA02F018BF404270474FF0000070479A
:1011400012F1610F01D1420205D110F0004008BF39
:101150006FF0004070474FF00000704738B5002234
:10116000002304460D46FFF729FC28B920462946EE
:10117000BDE8384000F00AB8204605F1004100F013
:1011800005F8404261EB410138BD00BFD0B50022F7
:101190000B4B06460F46FFF79FF9FFF775FC044619
:1011A000FFF720F90022074BFFF796F902460B469E
:1011B00030463946FEF7D8FFFFF766FC2146D0BD22
:1011C0000000F03D0000F04180B582B000AF7860D3
:1011D000054B1B687A689A4202D1034800F03EFC36
:1011E00000BF0837BD4680BDEC02002080B582B04C
:1011F00000AF78600B467B80034800F07DFF00BFA6
:101200000837BD4680BD00BF4C0300202DE9B04328
:1012100084B004AF2D4806F033F9C82200212C48D1
:1012200006F048F92B4800F089FE03462A4A13606D
:10123000284800F08EFE0346284A1360254800F037
:1012400093FE0346264A1360254B1B684FF07E51E0
:101250001846FFF735FF0346002B03D0204B4FF015
:1012600000021A601C4B1B681846FFF7DDF8804629
:1012700089461A4B1B681846FFF7D6F804460D46F8
:10128000174B1B681846FFF7CFF802460B46CDE90F
:101290000223CDE9004542464B4612490C4805F071
:1012A000B7F80B4A1049114801F0E6FC0346012B40
:1012B00004D107490E4806F07BF802E00D4806F01D
:1012C000DFF800BFBD46BDE8B08300BF40A70008FF
:1012D0006C090020EC020020340A0020380A0020AB
:1012E0003C0A002058A70008C4A700084C030020AF
:1012F000F4A700081CA8000880B582B002AF01F076
:1013000039FF00F02DF800F0DFF800F0BFF800F032
:1013100069F800F091F80C490C4800F087FB0C4B81
:1013200000934FF480530B4A0B490C4801F026F808
:10133000FFF76CFF094801F0ADFA41F2883001F087
:101340007BFF00BFF4E700BF60020020EC0200203A
:10135000000C0140A8020020180200204C030020CD
:1013600080B590B000AF07F118032822002118467D
:1013700006F0A0F83B1D00221A605A609A60DA60FD
:101380001A610223BB610123BB621023FB620223AB
:101390007B630023BB634FF46013FB6307F1180307
:1013A000184602F0B9FC0346002B01D000F0CCF83F
:1013B0000F237B600223BB600023FB604FF480633C
:1013C0003B6100237B613B1D0221184602F026FF92
:1013D0000346002B01D000F0B7F800BF4037BD46F0
:1013E00080BD000080B500AF114B124A1A60104B4F
:1013F0004FF4E1325A600E4B00229A600C4B0022EF
:10140000DA600B4B00221A61094B0C225A61084B1F
:1014100000229A61064B0022DA61054803F08CF83D
:101420000346002B01D000F08FF800BF80BD00BF45
:10143000180200200038014080B500AF114B124A5D
:101440001A60104B4FF4E1325A600E4B00229A6042
:101450000C4B0022DA600B4B00221A61094B0C2264
:101460005A61084B00229A61064B0022DA61054856
:1014700003F062F80346002B01D000F065F800BFCE
:1014800080BD00BF600200200044004080B582B0F3
:1014900000AF0C4B5B690B4A43F001035361094BEE
:1014A0005B6903F001037B607B68002200210F2051
:1014B00001F0BDFF0F2001F0D6FF00BF0837BD4689
:1014C00080BD00BF0010024080B586B000AF07F1BC
:1014D000080300221A605A609A60DA60184B9B6910
:1014E000174A43F004039361154B9B6903F004030F
:1014F0007B607B68124B9B69114A43F00803936140
:101500000F4B9B6903F008033B603B6800224FF4DC
:1015100080510C4802F0E8FB4FF48053BB6001237C
:10152000FB6000233B6102237B6107F1080319463E
:10153000044802F055FA00BF1837BD4680BD00BF11
:1015400000100240000C014080B400AF72B600BF32
:1015500000BFFDE780B485B000AF154B9B69144A0E
:1015600043F001039361124B9B6903F00103BB60DD
:10157000BB680F4BDB690E4A43F08053D3610C4BC1
:10158000DB6903F080537B607B680A4B5B68FB6020
:10159000FB6823F0E063FB60FB6843F00073FB60D3
:1015A000044AFB68536000BF1437BD4680BC7047D7
:1015B000001002400000014080B58AB000AF7860A2
:1015C00007F1180300221A605A609A60DA607B689B
:1015D0001B68524A934260D1514B9B69504A43F475
:1015E000804393614E4B9B6903F480437B617B692D
:1015F0004B4B9B694A4A43F004039361484B9B69F8
:1016000003F004033B613B694FF40073BB610223A9
:10161000FB6103237B6207F118031946414802F07E
:10162000DFF94FF48063BB610023FB6100233B6261
:1016300007F1180319463B4802F0D2F93A4B3B4AEE
:101640001A60394B00225A60374B00229A60364BA1
:101650008022DA60344B00221A61334B00225A6137
:10166000314B00229A61304B0022DA612E4801F0A2
:1016700015FF0346002B01D0FFF766FF7B682A4A5F
:10168000DA63294A7B68536200220021252001F099
:10169000CEFE252001F0E7FE3CE07B681B68244A73
:1016A000934237D11E4BDB691D4A43F40033D361AB
:1016B0001B4BDB6903F40033FB60FB68184B9B6931
:1016C000174A43F004039361154B9B6903F004032D
:1016D000BB60BB680423BB610223FB6103237B6205
:1016E00007F1180319460F4802F07AF90823BB6185
:1016F0000023FB6100233B6207F1180319460948E8
:1017000002F06EF900220021262001F090FE262032
:1017100001F0A9FE00BF2837BD4680BD003801405A
:101720000010024000080140A802002058000240BA
:101730000044004080B400AF00BFFDE780B400AFBC
:1017400000BFFDE780B400AF00BFFDE780B400AF8D
:1017500000BFFDE780B400AF00BFFDE780B400AF7D
:1017600000BFBD4680BC704780B400AF00BFBD461F
:1017700080BC704780B400AF00BFBD4680BC7047DE
:1017800080B500AF01F03CFD00BF80BD80B500AF6B
:10179000024801F0F1FF00BF80BD00BFA802002099
:1017A00080B500AF024803F09FF800BF80BD00BFC6
:1017B0001802002080B500AF024803F095F800BF82
:1017C00080BD00BF6002002080B400AF0123184636
:1017D000BD4680BC704780B582B000AF786039608C
:1017E00005F0BAFE034616221A604FF0FF33184682
:1017F0000837BD4680BD80B582B000AF78604FF03D
:10180000FF317868FFF7E7FF00BFFDE780B586B0DE
:1018100000AFF860B9607A6000237B610AE0AFF343
:1018200000800146BB685A1CBA60CAB21A707B6954
:1018300001337B617A697B689A42F0DB7B681846EA
:101840001837BD4680BD80B586B000AFF860B9607E
:101850007A6000237B6109E0BB685A1CBA601B7880
:101860001846AFF300807B6901337B617A697B683E
:101870009A42F1DB7B6818461837BD4680BD80B4BC
:1018800083B000AF78604FF0FF3318460C37BD4689
:1018900080BC704780B483B000AF786039603B682B
:1018A0004FF400525A60002318460C37BD4680BCE6
:1018B000704780B483B000AF7860012318460C37BE
:1018C000BD4680BC704780B485B000AFF860B96099
:1018D0007A60002318461437BD4680BC704700006C
:1018E00080B586B000AF7860144A154BD31A7B617F
:1018F0007B693B61134B1B68002B02D1114B124AD1
:101900001A60104B1A687B6813443A699A4207D2EE
:1019100005F022FE03460C221A604FF0FF3309E067
:10192000084B1B68FB60074B1A687B681344054A29
:101930001360FB6818461837BD4680BD0050002074
:1019400000040000400A0020200C002080B400AFFA
:1019500000BFBD4680BC7047FFF7F8FF0B480C493D
:101960000C4A002302E0D458C4500433C4188C42FB
:10197000F9D3094A094C002301E013600432A24262
:10198000FBD305F0EFFDFFF7B7FC70470000002028
:10199000FC0100201CB30008FC0100201C0C0020EE
:1019A000FEE7000080B582B000AF786039607B68E8
:1019B0001B683A685A607B681B68184602F0BCFDD9
:1019C0000346002B01D0FFF7BFFD7B681B68012297
:1019D0001349184602F08BFE4FF47A7001F02CFC8C
:1019E0007B681B79012B01D1012315E00D4B1B688E
:1019F00001330C4A13600B4B1B68082B02DD4FF0C0
:101A0000FF3309E0074B1B68074A52F82330194699
:101A10007868FFF7C7FF034618460837BD4680BD04
:101A2000440A0020040000200800002080B582B095
:101A300000AF786039607B683A681A607B68002282
:101A40001A717B681B685B6819467868FFF7AAFF04
:101A5000034618460837BD4680BD000080B582B0F9
:101A600000AF78601A4B1B780A2B10D0194B1B78EB
:101A70005BB2002B0BDB174B1B785A1CD1B2154AFB
:101A800011701A46124B1978134B995415E01249EC
:101A9000786800F023F80346002B06D07B6801220B
:101AA0001A710D49786800F07FF80A4B00221A700D
:101AB00080220021084805F0FDFC7B681B6801229C
:101AC0000349184602F013FE00BF0837BD4680BD2B
:101AD000440A0020C80A0020480A002080B586B0C9
:101AE00000AF7860396000237B6100233B617B6934
:101AF0003A6813441B78242B03D17B6901337B6143
:101B00000CE0002347E07B693A6813441B781A46CF
:101B10003B6953403B617B6901337B617B693A6878
:101B200013441B78002B08D07B693A6813441B7858
:101B30002A2B02D07B694A2BE5DD7B694A2B01DD2C
:101B4000002328E07B693A6813441B782A2B19D1BB
:101B50007B6901333A6813441B783B737B6902331A
:101B60003A6813441B787B730023BB7307F10803A7
:101B70003A690B49184604F04BFC3A7A3B7B9A428F
:101B800008D101E0002306E07A7A7B7B9A4201D1FA
:101B9000012300E0002318461837BD4680BD00BF72
:101BA00038A80008000000002DE9F0418CB008AF13
:101BB0007860396006229049386805F069FC034670
:101BC000002B43D17B6803F11C0C7B6803F1180EDA
:101BD0007B6820337A681432796821317868243040
:101BE0007C6828347D682C357E683036D7F80480D0
:101BF00008F13408CDF81C800696059504940390EE
:101C0000029101920093734662467C49386804F061
:101C10001FFC0346002B40F341817B689A697B6877
:101C200093F820301946104600F046F902467B68CA
:101C3000DA607B685A697B6893F821301946104650
:101C400000F03AF902467B689A6027E106226C4967
:101C5000386805F01DFC0346002B37D17B6803F183
:101C60001C0C7B6818337A682032796814317868E4
:101C700021307C6838347D683C357E68403607F119
:101C80000F0E06960595049403900291019200931D
:101C9000734662465B49386804F0DAFB0346002B62
:101CA00040F3FC807B689B6B1846FEF7BDFB50A39E
:101CB000D3E90023FEF710FC02460B4610461946F6
:101CC000FEF702FF02467B689A65E7E006224E496E
:101CD000386805F0DDFB0346002B1AD17B6803F161
:101CE00018047B6803F120057B6814337A6821327D
:101CF00079681C3178684430039002910192009316
:101D00002B4622464149386804F0A2FB0346002BCB
:101D1000C4E006223E49386805F0BAFB0346002BB2
:101D200043D17B6803F11C0C7B6803F1180E7B68C0
:101D300020337A68143279682131786824307C68DD
:101D400028347D682C357E683036D7F8048008F159
:101D50003408CDF81C8006960595049403900291F2
:101D600001920093734662462A49386804F070FB7A
:101D70000346002B40F392807B689A697B6893F856
:101D800020301946104600F097F802467B68DA606A
:101D90007B685A697B6893F821301946104600F039
:101DA0008BF802467B689A6078E006221A49386808
:101DB00005F06EFB0346002B32D17B6803F118045B
:101DC0007B6803F120057B6814337A6821327968D7
:101DD0001C317868443003900291019200932B46A5
:101DE00022460E49386804F033FB0346002B55E0C9
:101DF0006F1283C0CAA1FD3F40A8000848A8000890
:101E000070A8000878A800089CA80008A4A80008EA
:101E1000C0A80008C8A80008F0A80008F8A8000892
:101E200006222349386805F033FB0346002B35D1E1
:101E30007B6803F11C0C7B6818337A682032796860
:101E40001431786821307C6838347D683C357E6890
:101E5000403607F10E0E0696059504940390029104
:101E600001920093734662461249386804F0F0FA12
:101E70000346002B12DD7B689B6B1846FEF7D4FAF5
:101E800009A3D3E90023FEF727FB02460B461046C1
:101E90001946FEF719FE02467B689A651037BD4663
:101EA000BDE8F081AFF300806F1283C0CAA1FD3F8F
:101EB00014A900081CA9000880B586B000AF78609E
:101EC0000B46FB701B497868FFF710F8034618466D
:101ED000FFF71EF903463B613B69642202FB03F3F3
:101EE0001846FEF7FBFE034619467868FEF740FEEB
:101EF0000346FB601049F868FEF7F8FF0346BB6035
:101F00003869FEF7EBFE03461946B868FEF732FE65
:101F100003467B61FB78532B02D0FB78572B03D110
:101F20007B6983F000437B617B6918461837BD46A7
:101F300080BD00BF0000C8420000704280B483B082
:101F400000AF78607B68DB6818460C37BD4680BC04
:101F5000704780B483B000AF78607B689B68184698
:101F60000C37BD4680BC704780B483B000AF78604A
:101F70007B689B6D18460C37BD4680BC70470000DF
:101F800080B58AB000AF786039607868FEF7E0F815
:101F900003463B613868FEF7DBF80346FB6000232D
:101FA000FB610023BB6101237B6100237B620FE0A7
:101FB0007B691B024F4A82FB03121111DA178A1A3E
:101FC000652101FB02F29B1A7B617B6A01337B6214
:101FD000FB68013B7A6A9A42EADB00237B6226E0D7
:101FE000BB691B027A6A39680A4412781344414A71
:101FF00082FB03121111DA178A1A652101FB02F222
:102000009B1ABB61FB691B027A6A79680A441278E1
:102010001344384A82FB03121111DA178A1A652118
:1020200001FB02F29B1AFB617B6A01337B627A6AD5
:10203000FB689A42D4DB00237B624FE0BA69FB69FC
:102040009A421ED100233B620FE07A6A3B6A134436
:102050001A467B6813441A783B6A39680B441B782C
:102060009A4207D13B6A01333B623A6AFB689A4263
:10207000EBDB00E000BF3A6AFB689A4201D17B6A61
:1020800034E03A69FB68D31A7A6A9A4223DA7B6AA7
:102090007A6813441B781A467B6902FB03F3FA69DA
:1020A000D31A1B02796AFA680A4411467A680A440C
:1020B000127813440F4A82FB03121111DA178A1A9D
:1020C000652101FB02F29B1AFB61FB69002B02DA1E
:1020D000FB696533FB617B6A01337B623A69FB68AC
:1020E000D31A7A6A9A42A9DD4FF0FF33184628378F
:1020F000BD4680BDCBF08D2880B582B000AF786042
:102100007B6818687B689C3340F24C42194602F0A9
:1021100092FB00BF0837BD4680BD80B582B000AFDE
:1021200078607B681B68184602F006FB7B681868BD
:102130007B689C3340F24C42194602F07CFB7B6882
:102140009C3340F24C420021184605F0B3F900BF21
:102150000837BD4680BDB0B588B000AFF860B96043
:10216000C7E90023D7E90023C7E90623FB6803F288
:102170002253B968184605F038FA21E0FB689C3311
:10218000B9681846FFF7FCFE7861FB687A69C3F806
:1021900094207B69B3F1FF3F08D097F83030002BD3
:1021A00002D0F868FFF7B9FF7B6916E0D7E906238C
:1021B000541F43F1FF35C7E90645052001F03CF8FF
:1021C000D7E90623002BD9DA97F83030002B02D05C
:1021D000F868FFF7A2FF4FF0FF3318462037BD46DF
:1021E000B0BD0000B0B588B000AFF860B9607A60EB
:1021F000D7E90C23C7E906235AE0FB689C33B9688A
:102200001846FFF7BDFE78617B69B3F1FF3F1BD035
:1022100097F83830002B02D0F868FFF77EFFFB6894
:1022200003F59E6332220021184605F043F9FB684E
:1022300003F59E63274A1C4615460FCD206061605A
:10224000A260E360012340E0FB689C337968184694
:10225000FFF796FE38613B69B3F1FF3F1DD097F859
:102260003830002B02D0F868FFF757FFFB6803F502
:102270009E6332220021184605F01CF9FB6803F525
:102280009E63154A1D4614460FCC28606960AA60FB
:10229000EB6023782B74002317E0D7E90623B2F113
:1022A0000A0443F1FF35C7E906450A2000F0C4FFE0
:1022B000D7E90623002BA0DA97F83830002B02D09C
:1022C000F868FFF72AFF4FF0FF3318462037BD4666
:1022D000B0BD00BF40A9000850A9000880B588B073
:1022E00002AFF860B9607A60B868FDF731FF034665
:1022F000FB82FB681868FA8A4FF47A73B96802F0B7
:102300006BF90346002B01D0002309E097F8283031
:102310000093D7E908237968F868FFF71CFF0346A4
:1023200018461837BD4680BD80B58AB004AFF86046
:10233000B9607A603B60B868FDF70AFF0346FB822C
:10234000FB681868FA8A4FF47A73B96802F044F9A6
:102350000346002B01D000230CE097F828300293AD
:10236000D7E90823CDE900233A687968F868FFF7D0
:1023700039FF034618461837BD4680BD80B584B086
:1023800000AFF860B9607A607B80FB68BA681A6059
:10239000FB687A685A60FB687A881A82FB68BA69B7
:1023A0005A61FB681868FB689C3340F24C4219463E
:1023B00002F041FAFB685B681B681A68FB685B689F
:1023C0001B6822F004021A60F86800F005F8034662
:1023D00018461037BD4680BD80B582B000AF78602A
:1023E000786800F019F80346012B0CD17B680122B4
:1023F00083F82920786800F0B1F84FF47A6000F093
:102400001BFF012304E07B68002283F829200023BE
:1024100018460837BD4680BDB0B588B004AF7860B7
:102420000023FB601FE0FB680133FB60FB681E2B91
:1024300019DD7B6803F59E6332220021184605F002
:1024400039F87B6803F59E633D4A1C46134607CB6B
:1024500020606160A2601B88A3817B68002283F8F2
:102460002920002368E0012302934FF47A724FF091
:102470000003CDE90023334A33497868FFF72EFF84
:102480000346B3F1FF3FCED07B6803F59E63322253
:102490000021184605F00EF87B6803F59E632B4972
:1024A0001A460B4603CB1060516019889B78118146
:1024B0009372012302934FF47A724FF00003CDE937
:1024C0000023204A22497868FFF708FF0346B3F14A
:1024D000FF3F19D07B6803F59E6332220021184626
:1024E00004F0E8FF7B6803F59E631A4A1C46134616
:1024F00007CB20606160A2601B7823737B68012298
:1025000083F82920012317E07B6803F59E633222BC
:102510000021184604F0CEFF7B6803F59E630E4A47
:102520001C4615460FCD20606160A260E3607B68A9
:10253000002283F82920002318461037BD46B0BD7D
:1025400074AA000884AA00088CAA000894AA0008AB
:10255000A0AA0008A8AA0008B8AA000890B587B0E9
:1025600004AF7860012302934FF47A724FF00003B6
:10257000CDE90023204A21497868FFF7AFFE0346E2
:10258000B3F1FF3F17D17B6803F59E633222002130
:10259000184604F08FFF7B6803F59E63184A1068A5
:1025A00018609188927999809A717B68002283F8EB
:1025B0002A2000231BE07B6803F59E633222002162
:1025C000184604F077FF7B6803F59E630D4A1C46AE
:1025D000134607CB20606160A2601B88A3817868E6
:1025E00000F012F87B68012283F82A2001231846A4
:1025F0000C37BD4690BD00BFC8AA0008D8AA000885
:10260000E4AA0008ECAA0008B0B59CB004AF78605A
:10261000002302934FF4FA624FF00003CDE9002348
:10262000614A62497868FFF759FEB864BB6CB3F140
:10263000FF3F1ED17B6803F59E63322200211846BE
:1026400004F038FF7B6803F59E63594A1C46154623
:102650000FCD20606160A260E36028682061AB88D4
:10266000AA79A3821346A3757868FFF756FD002365
:1026700096E00023FB65BB6CBB6517E07A68BB6D19
:1026800013449C331B780D2B16D07A68BB6D134412
:102690009C33197807F10C02FB6D13440A461A703B
:1026A000FB6D0133FB65BB6D0133BB65BB6D40F258
:1026B0004C429342E2DD00E000BF7B6803F59E637D
:1026C00032220021184604F0F5FE7B6803F286539F
:1026D00007F10C021146184604F087FF00237B65C2
:1026E0000023FB657B6D3B651FE007F10C023B6D32
:1026F00013441B78222B02D1FB6D0133FB65FB6D6C
:10270000032B0FD13B6D013360333B4413F8543C32
:10271000302B03D13B6D02337B6509E03B6D043305
:102720007B6505E03B6D01333B653B6D3C2BDCDDA0
:102730000123FB657B6803F13C047B683C3318464E
:10274000FDF706FD03461A460021204604F0B2FEBE
:102750007B68302283F83C207B6DFB6417E007F137
:102760000C02FB6C13441B78222B14D007F10C02D3
:10277000FB6C134419787A68FB6D13443C330A46AA
:102780001A70FB6D0133FB65FB6C0133FB64FB6C62
:102790003C2BE4DD00E000BF7868FFF7BEFC0123BE
:1027A00018466037BD46B0BDFCAA000804AB00085F
:1027B00010AB000890B599B004AF78600023029385
:1027C0004FF4FA624FF00003CDE900232D4A2E4961
:1027D0007868FFF783FD78647B6CB3F1FF3F1AD113
:1027E0007B6803F59E6332220021184604F062FEE6
:1027F0007B6803F59E63254A1C46134607CB206081
:102800006160A2601A889B78A281A3737868FFF741
:1028100084FC002331E00023FB647B6CBB6417E085
:102820007A68BB6C13449C331B780D2B16D07A68E6
:10283000BB6C13449C33197807F11002FB6C1344F2
:102840000A461A70FB6C0133FB64BB6C0133BB643A
:10285000BB6C40F24C429342E2DD00E000BF7B687B
:1028600003F1300207F10C0307F11000084903F0EF
:10287000EFFD7868FFF751FC012318465437BD4639
:1028800090BD00BF98AB0008A0AB0008ACAB00083F
:10289000BCAB000880B582B000AF78607868FFF705
:1028A00089FF0346012B40F09C807B681B6B632BE8
:1028B00013D07B681B6BC72B0FD07B681B6B002B67
:1028C0000BD07B681B6B012B07D07B681B6B642BC9
:1028D00003D07B681B6B652B07D17B680022DA6213
:1028E0007B68002283F8342079E07B681B6B012B26
:1028F00038DD7B681B6B1F2B34DC7B68042283F87C
:1029000034207B681B6B012B07DD7B681B6B072B5F
:1029100003DC7B680122DA6223E07B681B6B072BF8
:1029200007DD7B681B6B0F2B03DC7B680222DA62FE
:1029300017E07B681B6B0F2B07DD7B681B6B172B6E
:1029400003DC7B680322DA620BE07B681B6B172BCE
:1029500044DD7B681B6B1F2B40DC7B680422DA6242
:102960003CE03BE07B681B6B652B38DD7B681B6BB9
:10297000BF2B34DC7B68032283F834207B681B6B1D
:10298000652B07DD7B681B6B7A2B03DC7B680122E0
:10299000DA6224E07B681B6B7A2B07DD7B681B6B9C
:1029A000912B03DC7B680222DA6218E07B681B6BE8
:1029B000912B07DD7B681B6BA82B03DC7B68032254
:1029C000DA620CE07B681B6BA82B08DD7B681B6B55
:1029D000BF2B04DC7B680422DA6200E000BF012325
:1029E00000E0002318460837BD4680BDB0B586B06C
:1029F00004AF78607B6803F59E633222002118469D
:102A000004F058FD7B6803F59E6319491A460B468E
:102A100003CB106051601B881381012302934FF494
:102A2000FA624FF00003CDE90023124A1249786898
:102A3000FFF754FC0346B3F1FF3F14D17B6803F565
:102A40009E6332220021184604F034FD7B6803F5B2
:102A50009E630A4A1C4615460FCD20606160A26045
:102A6000E360002300E0012318460837BD46B0BDEF
:102A7000C8AB000884AA0008D4AB0008E4AB000887
:102A8000B0B586B004AF7860012302934FF47A7238
:102A90004FF00003CDE900231C4A1D497868FFF779
:102AA0001DFC0346B3F1FF3F14D17B6803F59E6321
:102AB00032220021184604F0FDFC7B6803F59E637A
:102AC000144A1C4615460FCD20606160A260E36089
:102AD000002317E07B6803F59E633222002118462D
:102AE00004F0E8FC7B6803F59E630B4A1D46144620
:102AF0000FCC28606960AA60EB6020682861A38819
:102B0000AB82012318460837BD46B0BD84AA000831
:102B1000F4AB000804AC000814AC0008B0B5B8B0C1
:102B200004AF786039607B6803F59E633222002130
:102B3000184604F0BFFC7B6803F59E6322491A46E1
:102B40000B4603CB106051601B88138107F108030B
:102B5000C8220021184604F0ADFC07F108033A68CA
:102B60001A49184603F054FC07F1080101230293A7
:102B70004FF47A724FF00003CDE90023144A7868CD
:102B8000FFF7ACFB0346B3F1FF3F18D17B6803F5B9
:102B90009E6332220021184604F08CFC7B6803F50A
:102BA0009E630C4A1D4614460FCC28606960AA60DB
:102BB000EB602068286123792B75002300E0012356
:102BC0001846D037BD46B0BD2CAC000838AC000864
:102BD00084AA000854AC000880B586B004AF7860C1
:102BE00039603B68002B38D17B6893F82A30012B81
:102BF00003D17B68DB6A012B10DC012302934FF4C5
:102C00007A724FF00003CDE90023184A184978681A
:102C1000FFF764FB0346B3F1FF3F1CD17B68D3F899
:102C200098305A1C7B68C3F898207B68D3F898309A
:102C3000052B09DD0F4804F023FC7868FFF7CCFB77
:102C40007B680022C3F898207B68D3F80C365A1CA6
:102C50007B68C3F80C26002304E07B680022C3F8DD
:102C60009820012318460837BD4680BD84AA000875
:102C70008CAA00086CAC0008B0B5D0B004AF07F562
:102C80009873A3F59273186007F59873A3F594737E
:102C9000196007F59873A3F596731A600123C7F8B6
:102CA0002C3107F59873A3F592731B6803F59E63A7
:102CB00032220021184604F0FDFB07F59873A3F5B6
:102CC00092731B6803F59E63CE491A460B4603CBED
:102CD000106051601B88138107F59873A3F59273F8
:102CE0001868FFF7D7FD07F59873A3F592731B6873
:102CF000DB6A002B21D107F59873A3F592731B684B
:102D000003F59E6332220021184604F0D3FB07F539
:102D10009873A3F592731B6803F59E63BA4A1D4628
:102D200014460FCC28606960AA60EB602388A27803
:102D30002B821346AB74022310E207F59873A3F5B8
:102D400092731868FFF752FE0346002B03D100234D
:102D5000C7F82C31C2E107F59873A3F5947207F513
:102D60009873A3F5927311681868FFF7D7FE0346AE
:102D7000002B03D10023C7F82C31AFE107F598737E
:102D8000A3F59270012302934FF4FA624FF000030F
:102D9000CDE900239D4A9E490068FFF79FFA03464C
:102DA000B3F1FF3F23D107F59873A3F592731B6826
:102DB00003F59E6332220021184604F07BFB07F5E1
:102DC0009873A3F592731B6803F59E63914A1D46A1
:102DD00014460FCC28606960AA60EB602388A27853
:102DE0002B821346AB740023C7F82C3176E107F130
:102DF0005003C8220021184604F05CFB07F59873C5
:102E0000A3F596731868FDF7A3F90346C7F82031B8
:102E100007F15003D7F820217F49184603F0F8FA4C
:102E200007F59873A3F592731B6803F2225307F119
:102E300050021146184604F0D8FB07F1500107F57F
:102E40009873A3F59270012302934FF4FA624FF046
:102E50000003CDE90023714A0068FFF73FFA07F548
:102E60009873A3F5967107F59873A3F592700123F3
:102E700002934FF4FA624FF00003CDE90023634A56
:102E800009680068FFF72AFA07F59873A3F59270AE
:102E90000023029347F230524FF00003CDE90023A4
:102EA0005F4B604A60490068FFF73EFAC7F81C01B3
:102EB000D7F81C31B3F1FF3F03D0D7F81C31002BFA
:102EC00021D107F59873A3F592731B6803F59E63F0
:102ED00032220021184604F0EDFA07F59873A3F5A5
:102EE00092731B6803F59E63504A1D4614460FCC2F
:102EF00028606960AA60EB6003CC286169610023E7
:102F0000C7F82C31E3E0D7F81C31012B40F0DF800B
:102F100007F59873A3F59270002300934FF06402B5
:102F20004FF000033F490068FFF715F9C7F8180193
:102F3000D7F81831B3F1FF3F21D107F59873A3F506
:102F400092731B6803F59E6332220021184604F039
:102F5000B1FA07F59873A3F592731B6803F59E63A6
:102F6000324A1D4614460FCC28606960AA60EB60A7
:102F700003CC286169610023C7F82C31AEE005203D
:102F800000F05AF907F1140332220021184604F028
:102F900091FA0023C7F82831D7F81831C7F824313F
:102FA00028E007F59873A3F592731A68D7F82431CF
:102FB00013449C331B780D2B3AD007F59873A3F577
:102FC00092731A68D7F8243113449C33197807F5A3
:102FD0009873A3F58E72D7F8283113440A461A70F5
:102FE000D7F828310133C7F82831D7F82431013315
:102FF000C7F82431D7F8243140F24C429342D0DD57
:1030000017E000BF98AC0008A4AC000884AA000830
:10301000B8AC0008E4AC0008F8AC000810AD00083B
:103020001CAD000824AD000834AD000848AD000810
:1030300000BF4FF0FF33FB644FF0FF33BB6407F179
:103040004C0307F1480207F11400474903F000FA66
:1030500007F59873A3F592731B6803F2865307F183
:1030600014021146184604F0C0FABA6C07F59873BA
:10307000A3F592731B68C3F81026FA6C07F59873D2
:10308000A3F592731B68C3F80426BB6CC82B1ED033
:1030900007F59873A3F592731B6803F59E633222BC
:1030A0000021184604F006FA07F59873A3F5927309
:1030B0001B6803F59E632D4A1C4615460FCD206004
:1030C0006160A260E3600023C7F82C3106E007F5D9
:1030D0009873A3F592731868FFF71FF807F59873B4
:1030E000A3F592731868FFF7CBFCD7F82C31012BAE
:1030F0002AD107F59873A3F592731B6803F59E63B5
:1031000032220021184604F0D5F907F59873A3F58B
:1031100092731B6803F59E63154A1C46134607CB42
:1031200020606160A2601B78237307F59873A3F594
:1031300092731B68D3F808365A1C07F59873A3F5E9
:1031400092731B68C3F8082607F59873A3F592736A
:10315000D7F82C111868FFF73FFD0346184607F50E
:103160009877BD46B0BD00BF60AD000878AD0008DF
:1031700088AD000880B500AF084B1B68074A43F0D4
:1031800010031360032000F047F90F2000F008F847
:10319000FEF7E0F90023184680BD00BF0020024082
:1031A00080B582B000AF7860124B1A68124B1B7862
:1031B00019464FF47A73B3FBF1F3B2FBF3F31846FD
:1031C00000F05FF90346002B01D001230EE07B687D
:1031D0000F2B0AD8002279684FF0FF3000F027F952
:1031E000064A7B681360002300E001231846083775
:1031F000BD4680BD00000020300000202C000020D3
:1032000080B400AF054B1B781A46054B1B6813446E
:10321000034A136000BFBD4680BC704730000020E9
:10322000CC0A002080B400AF024B1B681846BD4694
:1032300080BC7047CC0A002080B584B000AF7860B5
:10324000FFF7F0FFB8607B68FB60FB68B3F1FF3FFE
:1032500005D00A4B1B781A46FB681344FB6000BF7D
:10326000FFF7E0FF0246BB68D31AFA689A42F7D824
:1032700000BF00BF1037BD4680BD00BF300000203A
:1032800080B485B000AF78607B6803F00703FB6013
:103290000C4BDB68BB60BA684FF6FF031340BB60A2
:1032A000FB681A02BB68134343F0BF6343F4003367
:1032B000BB60044ABB68D36000BF1437BD4680BC06
:1032C000704700BF00ED00E080B400AF044BDB6846
:1032D0001B0A03F007031846BD4680BC704700BFB9
:1032E00000ED00E080B483B000AF0346FB7197F9B6
:1032F0000730002B0BDBFB7903F01F02064997F91F
:1033000007305B09012000FA02F241F8232000BFD8
:103310000C37BD4680BC704700E100E080B483B04C
:1033200000AF03463960FB7197F90730002B0ADBC9
:103330003B68DAB20C4997F907301201D2B20B445C
:1033400083F800230AE03B68DAB20849FB7903F00E
:103350000F03043B1201D2B20B441A7600BF0C37A4
:10336000BD4680BC704700BF00E100E000ED00E01A
:1033700080B489B000AFF860B9607A60FB6803F090
:103380000703FB61FB69C3F10703042B28BF042378
:10339000BB61FB690433062B02D9FB69033B00E0E8
:1033A00000237B614FF0FF32BB6902FA03F3DA437B
:1033B000BB681A407B699A404FF0FF317B6901FA84
:1033C00003F3D9437B680B40134318462437BD46AB
:1033D00080BC704780B582B000AF78607B68013BED
:1033E000B3F1807F01D301230FE00A4A7B68013BE0
:1033F00053600F214FF0FF30FFF790FF054B002285
:103400009A60044B07221A60002318460837BD460D
:1034100080BD00BF10E000E080B582B000AF7860F2
:103420007868FFF72DFF00BF0837BD4680BD80B527
:1034300086B000AF0346B9607A60FB7300237B61FE
:10344000FFF742FF78617A68B9687869FFF790FF03
:10345000024697F90F3011461846FFF75FFF00BF8D
:103460001837BD4680BD80B582B000AF0346FB7102
:1034700097F907301846FFF735FF00BF0837BD46FC
:1034800080BD80B582B000AF78607868FFF7A2FF9A
:10349000034618460837BD4680BD000080B485B09D
:1034A00000AF78600023FB607B68002B01D1012313
:1034B00043E07B681B681A46224B1344224AA2FB56
:1034C00003231B099A007B681A647B681F4ADA632E
:1034D0007B68022283F821207B681B681B68FB60E5
:1034E000FB6823F47F5323F03003FB607B685A684A
:1034F0007B689B681A437B68DB681A437B681B699F
:103500001A437B685B691A437B689B691A437B6833
:10351000DB691343FA681343FB607B681B68FA6836
:103520001A607B6800229A637B68012283F821205D
:103530007B68002283F82020002318461437BD46FC
:1035400080BC7047F8FFFDBFCDCCCCCC0000024062
:1035500080B586B000AFF860B9607A603B60002348
:10356000FB75FB6893F82030012B01D102234BE05F
:10357000FB68012283F82020FB6893F82130DBB23E
:10358000012B3AD1FB68022283F82120FB6800223C
:103590009A63FB681B681A68FB681B6822F00102CB
:1035A0001A603B687A68B968F86800F0EBF9FB6864
:1035B000DB6A002B08D0FB681B681A68FB681B6875
:1035C00042F00E021A600FE0FB681B681A68FB6885
:1035D0001B6822F004021A60FB681B681A68FB680B
:1035E0001B6842F00A021A60FB681B681A68FB68D5
:1035F0001B6842F001021A6005E0FB68002283F8B4
:1036000020200223FB75FB7D18461837BD4680BD80
:1036100080B485B000AF78600023FB737B6893F8BB
:103620002130DBB2022B08D07B6804229A637B68CE
:10363000002283F82020012320E07B681B681A68A1
:103640007B681B6822F00E021A607B681B681A6890
:103650007B681B6822F001021A607B681A6C7B6829
:10366000DB6B012101FA02F25A607B68012283F8C8
:1036700021207B68002283F82020FB7B184614372A
:10368000BD4680BC7047000080B584B000AF786054
:103690000023FB737B6893F82130DBB2022B05D04B
:1036A0007B6804229A630123FB7351E07B681B68EB
:1036B0001A687B681B6822F00E021A607B681B6820
:1036C0001A687B681B6822F001021A607B681B681D
:1036D000224A934229D07B681B68214A934222D018
:1036E0007B681B681F4A93421AD07B681B681E4A7E
:1036F000934212D07B681B681C4A93420AD07B68B5
:103700001B681B4A934202D14FF480130EE04FF026
:1037100080730BE04FF4803308E04FF4805305E0F2
:103720004FF4807302E0102300E00123114A53603C
:103730007B68012283F821207B68002283F8202007
:103740007B685B6B002B03D07B685B6B786898476A
:10375000FB7B18461037BD4680BD00BF0800024005
:103760001C00024030000240440002405800024069
:103770006C0002400000024080B584B000AF786069
:103780007B68DB6B1B68FB607B681B681B68BB602E
:103790007B681B6C04229A40FB681340002B4FD0BF
:1037A000BB6803F00403002B4AD07B681B681B68CE
:1037B00003F02003002B07D17B681B681A687B6825
:1037C0001B6822F004021A607B681B68664A9342F9
:1037D00029D07B681B68654A934222D07B681B68AE
:1037E000634A93421AD07B681B68624A934212D0A4
:1037F0007B681B68604A93420AD07B681B685F4AFB
:10380000934202D14FF480030EE04FF080630BE04F
:103810004FF4802308E04FF4804305E04FF48063C9
:1038200002E0402300E00423554A53607B68DB6AD2
:10383000002B00F094807B68DB6A786898478EE004
:103840007B681B6C02229A40FB681340002B56D009
:10385000BB6803F00203002B51D07B681B681B6818
:1038600003F02003002B0BD17B681B681A687B6870
:103870001B6822F00A021A607B68012283F821206B
:103880007B681B68384A934229D07B681B68374A9B
:10389000934222D07B681B68354A93421AD07B68DA
:1038A0001B68344A934212D07B681B68324A9342A9
:1038B0000AD07B681B68314A934202D14FF400134F
:1038C0000EE04FF000730BE04FF4003308E04FF4CC
:1038D000005305E04FF4007302E0202300E00223D0
:1038E000274A53607B68002283F820207B689B6A0C
:1038F000002B34D07B689B6A786898472FE07B6800
:103900001B6C08229A40FB681340002B28D0BB6830
:1039100003F00803002B23D07B681B681A687B68C0
:103920001B6822F00E021A607B681A6C7B68DB6BE6
:10393000012101FA02F25A607B6801229A637B68D6
:10394000012283F821207B68002283F820207B68F5
:103950001B6B002B04D07B681B6B7868984700BFFB
:1039600000BF1037BD4680BD080002401C00024069
:103970003000024044000240580002406C00024007
:103980000000024080B485B000AFF860B9607A6092
:103990003B60FB681A6CFB68DB6B012101FA02F2E9
:1039A0005A60FB681B683A685A60FB685B68102BBA
:1039B00008D1FB681B687A689A60FB681B68BA6864
:1039C000DA6007E0FB681B68BA689A60FB681B68EE
:1039D0007A68DA6000BF1437BD4680BC70470000CB
:1039E00080B48BB000AF7860396000237B62002325
:1039F0003B6269E101227B6A02FA03F3FB613B68E7
:103A00001B68FA691340BB61BA69FB699A4240F0CE
:103A100058813B685B689A4A93425ED0984A9342C9
:103A200075D8984A934258D0964A93426FD8964A8E
:103A3000934252D0944A934269D8944A93424CD0CC
:103A4000924A934263D8924A934246D0904A934214
:103A50005DD8122B2AD8122B59D801A252F823F084
:103A6000DB3A0008B53A0008C73A0008093B0008ED
:103A70000F3B00080F3B00080F3B00080F3B0008FE
:103A80000F3B00080F3B00080F3B00080F3B0008EE
:103A90000F3B00080F3B00080F3B00080F3B0008DE
:103AA0000F3B0008BD3A0008D13A0008794A93421A
:103AB00013D02CE03B68DB683B6229E03B68DB68A5
:103AC00004333B6224E03B68DB6808333B621FE061
:103AD0003B68DB680C333B621AE03B689B68002B59
:103AE00002D104233B6213E03B689B68012B05D1A4
:103AF00008233B627B68FA691A6109E008233B628C
:103B00007B68FA695A6103E000233B6200E000BF72
:103B1000BB69FF2B01D87B6801E07B6804337B61C4
:103B2000BB69FF2B02D87B6A9B0002E07B6A083BE3
:103B30009B003B617B691A680F213B6901FA03F323
:103B4000DB431A40396A3B6901FA03F31A437B6984
:103B50001A603B685B6803F08053002B00F0B18073
:103B60004D4B9B694C4A43F0010393614A4B9B695F
:103B700003F00103BB60BB68484A7B6A9B080233C1
:103B800052F82330FB607B6A03F003039B000F2293
:103B900002FA03F3DB43FA681340FB607B68404A98
:103BA000934213D07B683F4A93420DD07B683E4AD4
:103BB000934207D07B683D4A934201D1032306E03C
:103BC000042304E0022302E0012300E000237A6AD8
:103BD00002F0030292009340FA681343FB602F49FE
:103BE0007B6A9B080233FA6841F823203B685B68D4
:103BF00003F48013002B06D02D4B9A682C49BB6927
:103C000013438B6006E02A4B9A68BB69DB43284963
:103C100013408B603B685B6803F40013002B06D0F5
:103C2000234BDA682249BB691343CB6006E0204B83
:103C3000DA68BB69DB431E491340CB603B685B68B5
:103C400003F40033002B06D0194B5A681849BB699E
:103C500013434B6006E0164B5A68BB69DB431449BB
:103C600013404B603B685B6803F48033002B21D02A
:103C70000F4B1A680E49BB6913430B6021E000BF6C
:103C8000000032100000311000002210000021104E
:103C9000000012100000111000100240000001404E
:103CA00000080140000C01400010014000140140D8
:103CB000000401400B4B1A68BB69DB430949134000
:103CC0000B607B6A01337B623B681A687B6A22FA6D
:103CD00003F3002B7FF48EAE00BF00BF2C37BD4630
:103CE00080BC70470004014080B483B000AF7860AE
:103CF0000B467B8013467B707B78002B03D07A8841
:103D00007B681A6103E07B881A047B681A6100BF34
:103D10000C37BD4680BC704780B586B000AF786078
:103D20007B68002B01D1012372E27B681B6803F0E2
:103D30000103002B00F08780924B5B6803F00C03BB
:103D4000042B0CD08F4B5B6803F00C03082B12D1B3
:103D50008C4B5B6803F48033B3F5803F0BD1894B08
:103D60001B6803F40033002B6CD07B685B68002B6E
:103D700068D101234CE27B685B68B3F5803F06D1D4
:103D8000804B1B687F4A43F4803313602EE07B68CE
:103D90005B68002B0CD17B4B1B687A4A23F4803381
:103DA0001360784B1B68774A23F4802313601DE06F
:103DB0007B685B68B3F5A02F0CD1724B1B68714A0E
:103DC00043F4802313606F4B1B686E4A43F48033C7
:103DD00013600BE06B4B1B686A4A23F4803313605B
:103DE000684B1B68674A23F4802313607B685B6819
:103DF000002B13D0FFF716FA386108E0FFF712FA2C
:103E000002463B69D31A642B01D9032300E25D4BC0
:103E10001B6803F40033002BF0D014E0FFF702FA24
:103E2000386108E0FFF7FEF902463B69D31A642BBC
:103E300001D90323ECE1534B1B6803F40033002B3F
:103E4000F0D100E000BF7B681B6803F00203002B89
:103E500063D04C4B5B6803F00C03002B0BD0494B39
:103E60005B6803F00C03082B1CD1464B5B6803F422
:103E70008033002B16D1434B1B6803F00203002B49
:103E800005D07B681B69012B01D00123C0E13D4BAC
:103E90001B6823F0F8027B685B69DB003949134338
:103EA0000B603AE07B681B69002B20D0364B012267
:103EB0001A60FFF7B7F9386108E0FFF7B3F9024677
:103EC0003B69D31A022B01D90323A1E12D4B1B68B7
:103ED00003F00203002BF0D02A4B1B6823F0F802FA
:103EE0007B685B69DB00274913430B6015E0264BB9
:103EF00000221A60FFF796F9386108E0FFF792F99F
:103F000002463B69D31A022B01D9032380E11D4BE2
:103F10001B6803F00203002BF0D17B681B6803F0E1
:103F20000803002B3AD07B689B69002B19D0174BF4
:103F300001221A60FFF776F9386108E0FFF772F99D
:103F400002463B69D31A022B01D9032360E10D4BD2
:103F50005B6A03F00203002BF0D0012000F0CEFAE0
:103F60001CE00A4B00221A60FFF75CF938610FE091
:103F7000FFF758F902463B69D31A022B08D90323ED
:103F800046E100BF0010024000004242800442426D
:103F9000924B5B6A03F00203002BE9D17B681B683C
:103FA00003F00403002B00F0A6800023FB758B4B6D
:103FB000DB6903F08053002B0DD1884BDB69874A06
:103FC00043F08053D361854BDB6903F08053BB60C2
:103FD000BB680123FB75824B1B6803F48073002BC5
:103FE00018D17F4B1B687E4A43F480731360FFF740
:103FF00019F9386108E0FFF715F902463B69D31A51
:10400000642B01D9032303E1754B1B6803F4807310
:10401000002BF0D07B68DB68012B06D16F4B1B6A4D
:104020006E4A43F0010313622DE07B68DB68002BCE
:104030000CD16A4B1B6A694A23F001031362674B78
:104040001B6A664A23F0040313621CE07B68DB688A
:10405000052B0CD1614B1B6A604A43F004031362C9
:104060005E4B1B6A5D4A43F0010313620BE05B4B3E
:104070001B6A5A4A23F001031362584B1B6A574AC2
:1040800023F0040313627B68DB68002B15D0FFF775
:10409000C9F838610AE0FFF7C5F802463B69D31A50
:1040A00041F28832934201D90323B1E04B4B1B6AA2
:1040B00003F00203002BEED014E0FFF7B3F83861F1
:1040C0000AE0FFF7AFF802463B69D31A41F28832A3
:1040D000934201D903239BE0404B1B6A03F0020388
:1040E000002BEED1FB7D012B05D13C4BDB693B4A1C
:1040F00023F08053D3617B68DB69002B00F087805D
:10410000364B5B6803F00C03082B61D07B68DB69DE
:10411000022B46D1334B00221A60FFF783F8386137
:1041200008E0FFF77FF802463B69D31A022B01D95A
:1041300003236DE0294B1B6803F00073002BF0D1C3
:104140007B681B6AB3F5803F08D1244B5B6823F47E
:1041500000327B689B68214913434B601F4B5B68AF
:1041600023F474127B68196A7B685B6A0B431B49F2
:1041700013434B601B4B01221A60FFF753F8386161
:1041800008E0FFF74FF802463B69D31A022B01D92A
:1041900003233DE0114B1B6803F00073002BF0D0AC
:1041A00035E0104B00221A60FFF73CF8386108E058
:1041B000FFF738F802463B69D31A022B01D90323D3
:1041C00026E0064B1B6803F00073002BF0D11EE0C5
:1041D0007B68DB69012B07D1012319E00010024045
:1041E00000700040600042420B4B5B68FB60FB6864
:1041F00003F480327B681B6A9A4206D1FB6803F4A1
:1042000070127B685B6A9A4201D0012300E00023B0
:1042100018461837BD4680BD0010024080B584B0F6
:1042200000AF786039607B68002B01D10123D0E0BA
:104230006A4B1B6803F007033A689A4210D9674B30
:104240001B6823F0070265493B6813430B60634B0F
:104250001B6803F007033A689A4201D00123B8E0D3
:104260007B681B6803F00203002B20D07B681B686F
:1042700003F00403002B05D0594B5B68584A43F404
:10428000E06353607B681B6803F00803002B05D0D4
:10429000534B5B68524A43F460535360504B5B6826
:1042A00023F0F0027B689B684D4913434B607B68A9
:1042B0001B6803F00103002B40D07B685B68012B77
:1042C00007D1474B1B6803F40033002B15D10123A2
:1042D0007FE07B685B68022B07D1414B1B6803F0D2
:1042E0000073002B09D1012373E03D4B1B6803F0E1
:1042F0000203002B01D101236BE0394B5B6823F0F3
:1043000003027B685B68364913434B60FEF78AFF04
:10431000F8600AE0FEF786FF0246FB68D31A41F216
:104320008832934201D9032353E02D4B5B6803F09D
:104330000C027B685B689B009A42EBD1274B1B68A1
:1043400003F007033A689A4210D2244B1B6823F00B
:10435000070222493B6813430B60204B1B6803F0A4
:1043600007033A689A4201D0012332E07B681B6858
:1043700003F00403002B08D0194B5B6823F4E062C0
:104380007B68DB68164913434B607B681B6803F04E
:104390000803002B09D0124B5B6823F460527B6842
:1043A0001B69DB000E4913434B6000F021F8024605
:1043B0000B4B5B681B0903F00F030A49CB5C22FA25
:1043C00003F3094A1360094B1B681846FEF7E8FE21
:1043D000002318461037BD4680BD00BF00200240B4
:1043E00000100240A0AE0008000000202C000020B9
:1043F00080B487B000AF0023FB600023BB600023C4
:104400007B6100237B6000233B611E4B5B68FB608C
:10441000FB6803F00C03042B02D0082B03D027E029
:10442000194B3B6127E0FB689B0C03F00F03174A15
:10443000D35C7B60FB6803F48033002B10D0114BFE
:104440005B685B0C03F00103114AD35CBB607B68C3
:104450000D4A03FB02F2BB68B2FBF3F37B6104E09D
:104460007B680C4A02FB03F37B617B693B6102E0E2
:10447000054B3B6100BF3B6918461C37BD4680BCFD
:10448000704700BF0010024000127A00B8AE00086A
:10449000C8AE000800093D0080B400AF024B1B68A5
:1044A0001846BD4680BC70470000002080B500AFB4
:1044B000FFF7F2FF0246054B5B681B0A03F0070398
:1044C0000349CB5C22FA03F3184680BD001002407A
:1044D000B0AE000880B500AFFFF7DEFF0246054B27
:1044E0005B68DB0A03F007030349CB5C22FA03F3A2
:1044F000184680BD00100240B0AE000880B485B000
:1045000000AF78600A4B1B680A4AA2FB03235B0AD0
:104510007A6802FB03F3FB6000BFFB685A1EFA6077
:10452000002BF9D100BF00BF1437BD4680BC7047D7
:1045300000000020D34D621080B582B000AF7860DB
:104540007B68002B01D1012342E07B6893F8413066
:10455000DBB2002B06D17B68002283F8402078680C
:10456000FDF72AF87B68242283F841207B681B68CA
:10457000DA687B681B6822F40052DA60786801F020
:104580004DF87B681B681A697B681B6822F49042AF
:104590001A617B681B685A697B681B6822F02A02D3
:1045A0005A617B681B68DA687B681B6842F40052BA
:1045B000DA607B6800225A647B68202283F84120FD
:1045C0007B68202283F842207B6800225A63002304
:1045D00018460837BD4680BD80B58AB002AFF86086
:1045E000B9603B601346FB8000237B61FB6893F856
:1045F0004130DBB2202B75D1BB68002B02D0FB8889
:10460000002B01D101236EE0FB6800225A64FB6895
:10461000212283F84120FEF705FE7861FB68FA88C5
:104620009A84FB68FA88DA84FB689B68B3F5805F3C
:1046300008D1FB681B69002B04D10023FB61BB6818
:10464000BB6103E0BB68FB610023BB612EE03B68FC
:1046500000937B6900228021F86800F0F0FC03469B
:10466000002B05D0FB68202283F8412003233AE089
:10467000FB69002B0BD1BB691B881A46FB681B68C2
:10468000C2F308025A60BB690233BB6107E0FB69F1
:104690001A78FB681B685A60FB690133FB61FB6891
:1046A000DB8C9BB2013B9AB2FB68DA84FB68DB8C43
:1046B0009BB2002BCBD13B6800937B690022402149
:1046C000F86800F0BCFC0346002B05D0FB682022F4
:1046D00083F84120032306E0FB68202283F8412071
:1046E000002300E0022318462037BD4680BD80B578
:1046F00084B000AFF860B9601346FB80FB6893F8A4
:104700004230DBB2202B12D1BB68002B02D0FB88D9
:10471000002B01D101230BE0FB6800221A63FB8808
:104720001A46B968F86800F0E3FC034600E002238B
:1047300018461037BD4680BD80B590B000AF786098
:104740000023FB637B681B685B6903F08003002B1D
:1047500014BF01230023DBB2FB637B6893F8413075
:10476000DBB2212B28D1FB6B002B25D07B681B688B
:1047700014337B627B6A53E8003F3B623B6A23F061
:104780008003BB637B681B681433BA6B3A63FB62BC
:10479000F96A3A6B41E80023BB62BB6A002BE5D1A2
:1047A0007B689B6B002B04D07B689B6B1846FEF7E5
:1047B0002FFF786800F070FD7B681B685B6903F071
:1047C0004003002B14BF01230023DBB2FB637B6893
:1047D00093F84230DBB2222B28D1FB6B002B25D083
:1047E0007B681B6814333B613B6953E8003FFB6007
:1047F000FB6823F040037B637B681B6814337A6B90
:10480000FA61BB61B969FA6941E800237B617B69A0
:10481000002BE5D17B68DB6B002B04D07B68DB6B66
:104820001846FEF7F5FE786800F05DFD0023184697
:104830004037BD4680BD80B58CB000AFF860B96030
:104840001346FB80FB6893F84230DBB2202B46D145
:10485000BB68002B02D0FB88002B01D101233FE075
:10486000FB6801221A63FB6800225A63FB881A4620
:10487000B968F86800F076FC034687F82F30FB68CB
:104880001B6B012B25D100233B61FB681B681B6858
:104890003B61FB681B685B683B613B69FB681B68AD
:1048A0000C33BB61BB6953E8003F7B617B6943F01C
:1048B0001003BB62FB681B680C33BA6A7A623B6206
:1048C000396A7A6A41E80023FB61FB69002BE5D174
:1048D00002E0012387F82F3097F82F3000E0022301
:1048E00018463037BD4680BD80B5BAB000AF78609D
:1048F0007B681B681B68C7F8E4307B681B68DB6853
:10490000C7F8E0307B681B685B69C7F8DC300023C0
:10491000C7F8D8300023C7F8D430D7F8E43003F014
:104920000F03C7F8D830D7F8D830002B0FD1D7F8FD
:10493000E43003F02003002B09D0D7F8E03003F077
:104940002003002B03D0786800F0AAFD5BE2D7F8C3
:10495000D830002B00F0DE80D7F8DC3003F0010304
:10496000002B06D1D7F8E03003F49073002B00F051
:10497000D180D7F8E43003F00103002B0BD0D7F837
:10498000E03003F48073002B05D07B685B6C43F050
:1049900001027B685A64D7F8E43003F00403002B6B
:1049A0000BD0D7F8DC3003F00103002B05D07B6877
:1049B0005B6C43F002027B685A64D7F8E43003F082
:1049C0000203002B0BD0D7F8DC3003F00103002BDF
:1049D00005D07B685B6C43F004027B685A64D7F8AF
:1049E000E43003F00803002B11D0D7F8E03003F0D7
:1049F0002003002B05D1D7F8DC3003F00103002B96
:104A000005D07B685B6C43F008027B685A647B6866
:104A10005B6C002B00F0F281D7F8E43003F0200348
:104A2000002B08D0D7F8E03003F02003002B02D091
:104A3000786800F035FD7B681B685B6903F0400314
:104A4000002B14BF01230023DBB2C7F8D4307B68EE
:104A50005B6C03F00803002B03D1D7F8D430002B94
:104A60004FD0786800F03FFC7B681B685B6903F0FF
:104A70004003002B41D07B681B681433C7F89C307F
:104A8000D7F89C3053E8003FC7F89830D7F89830F3
:104A900023F04003C7F8D0307B681B681433D7F885
:104AA000D020C7F8A820C7F8A430D7F8A410D7F8AA
:104AB000A82041E80023C7F8A030D7F8A030002B89
:104AC000D9D17B68DB6B002B13D07B68DB6B7E4A14
:104AD0005A637B68DB6B1846FEF7D6FD0346002B56
:104AE00016D07B68DB6B5B6B7A68D26B104698479D
:104AF0000EE0786800F09CF90AE0786800F098F918
:104B000006E0786800F094F97B6800225A6475E149
:104B100000BF73E17B681B6B012B40F04F81D7F81E
:104B2000E43003F01003002B00F04881D7F8E030A8
:104B300003F01003002B00F041810023BB607B6871
:104B40001B681B68BB607B681B685B68BB60BB68DD
:104B50007B681B685B6903F04003002B00F0B680A4
:104B60007B68DB6B1B685B68A7F8BE30B7F8BE30AC
:104B7000002B00F045817B689B8DB7F8BE209A42E0
:104B800080F03E817B68B7F8BE20DA857B68DB6BFE
:104B90009B69202B00F088807B681B680C33C7F86A
:104BA0008830D7F8883053E8003FC7F88430D7F80A
:104BB000843023F48073C7F8B8307B681B680C33EB
:104BC000D7F8B820C7F89420C7F89030D7F89010DD
:104BD000D7F8942041E80023C7F88C30D7F88C3000
:104BE000002BD9D17B681B6814337B677B6F53E83C
:104BF000003F3B673B6F23F00103C7F8B4307B688D
:104C00001B681433D7F8B420C7F88020FB67F96F0E
:104C1000D7F8802041E80023BB67BB6F002BE1D1B0
:104C20007B681B6814333B663B6E53E8003FFB65B3
:104C3000FB6D23F04003C7F8B0307B681B6814336A
:104C4000D7F8B020FA66BB66B96EFA6E41E8002369
:104C50007B667B6E002BE3D17B68202283F84220A9
:104C60007B6800221A637B681B680C33FB64FB6C57
:104C700053E8003FBB64BB6C23F01003C7F8AC30B3
:104C80007B681B680C33D7F8AC20BA657B65796DFF
:104C9000BA6D41E800233B653B6D002BE3D17B6897
:104CA000DB6B1846FEF7B4FC7B6802225A637B6814
:104CB0009A8D7B68DB8D9BB2D31A9BB219467868BC
:104CC000FCF794FA9CE000BFAB5300087B689A8D18
:104CD0007B68DB8D9BB2D31AA7F8CE307B68DB8D67
:104CE0009BB2002B00F08E80B7F8CE30002B00F086
:104CF00089807B681B680C33BB63BB6B53E8003F48
:104D00007B637B6B23F49073C7F8C8307B681B68A8
:104D10000C33D7F8C8207A643B64396C7A6C41E86C
:104D20000023FB63FB6B002BE3D17B681B68143310
:104D30007B627B6A53E8003F3B623B6A23F00103DE
:104D4000C7F8C4307B681B681433D7F8C4203A63B3
:104D5000FB62F96A3A6B41E80023BB62BB6A002B35
:104D6000E3D17B68202283F842207B6800221A630B
:104D70007B681B680C333B613B6953E8003FFB6079
:104D8000FB6823F01003C7F8C0307B681B680C3346
:104D9000D7F8C020FA61BB61B969FA6941E800231C
:104DA0007B617B69002BE3D17B6802225A63B7F8F1
:104DB000CE3019467868FCF719FA23E0D7F8E430CA
:104DC00003F08003002B09D0D7F8E03003F0800314
:104DD000002B03D0786800F0FCFA14E0D7F8E43038
:104DE00003F04003002B0ED0D7F8E03003F040036F
:104DF000002B08D0786800F03BFB04E000BF02E025
:104E000000BF00E000BFE837BD4680BD80B483B07E
:104E100000AF786000BF0C37BD4680BC704780B4DF
:104E200083B000AF786000BF0C37BD4680BC7047D0
:104E300080B483B000AF786000BF0C37BD4680BC43
:104E4000704780B59CB000AF78607B685B6AFB669A
:104E50007B681B681B6803F02003002B72D1FB6E7C
:104E60000022DA85FB6E1B680C33FB64FB6C53E895
:104E7000003FBB64BB6C23F48073BB66FB6E1B6896
:104E80000C33BA6EBA657B65796DBA6D41E8002363
:104E90003B653B6D002BE5D1FB6E1B681433BB6398
:104EA000BB6B53E8003F7B637B6B23F001037B66A6
:104EB000FB6E1B6814337A6E7A643B64396C7A6CCF
:104EC00041E80023FB63FB6B002BE5D1FB6E1B6805
:104ED00014337B627B6A53E8003F3B623B6A23F0FA
:104EE00040033B66FB6E1B6814333A6E3A63FB6209
:104EF000F96A3A6B41E80023BB62BB6A002BE5D13B
:104F0000FB6E202283F84220FB6E1B6B012B19D114
:104F1000FB6E1B680C333B613B6953E8003FFB6051
:104F2000FB6823F01003FB65FB6E1B680C33FA6D06
:104F3000FA61BB61B969FA6941E800237B617B6969
:104F4000002BE5D1FB6E00225A63FB6E1B6B012B1D
:104F500006D1FB6E9B8D1946F86EFCF747F902E00F
:104F6000F86EFCF731F900BF7037BD4680BD80B5E3
:104F700084B000AF78607B685B6AFB60FB680122ED
:104F80005A63FB681B6B012B08D1FB689B8D5B0888
:104F90009BB21946F868FCF729F902E0F868FFF7B8
:104FA0003EFF00BF1037BD4680BD80B584B000AF66
:104FB00078600023FB607B685B6ABB60BB681B6832
:104FC0005B6903F08003002B14BF01230023DBB2D5
:104FD000FB60BB6893F84130DBB2212B08D1FB6842
:104FE000002B05D0BB680022DA84B86800F054F9C1
:104FF000BB681B685B6903F04003002B14BF0123EF
:105000000023DBB2FB60BB6893F84230DBB2222B9B
:1050100008D1FB68002B05D0BB680022DA85B86890
:1050200000F061F9BB685B6C43F01002BB685A6426
:10503000B868FFF7FDFE00BF1037BD4680BD80B5E4
:1050400086B000AFF860B9603B601346FB713BE08F
:105050003B6AB3F1FF3F37D0FEF7E4F802463B6806
:10506000D31A3A6A9A4202D33B6A002B01D1032336
:105070003AE0FB681B68DB6803F00403002B23D0D5
:10508000BB68802B20D0BB68402B1DD0FB681B6801
:105090001B6803F00803082B16D100237B61FB6813
:1050A0001B681B687B61FB681B685B687B617B69B5
:1050B000F86800F018F9FB6808225A64FB680022BF
:1050C00083F8402001230FE0FB681B681A68BB6867
:1050D0001340BA689A420CBF01230023DBB21A4680
:1050E000FB799A42B4D0002318461837BD4680BDDC
:1050F00080B485B000AFF860B9601346FB80FB68F0
:10510000BA689A62FB68FA889A85FB68FA88DA8539
:10511000FB6800225A64FB68222283F84220FB6865
:105120001B69002B07D0FB681B68DA68FB681B68EB
:1051300042F48072DA60FB681B685A69FB681B687E
:1051400042F001025A61FB681B68DA68FB681B6861
:1051500042F02002DA60002318461437BD4680BCB6
:105160007047000080B598B000AFF860B960134692
:10517000FB80BA68FB689A62FB68FA889A85FB68CC
:1051800000225A64FB68222283F84220FB68DB6B12
:105190003E4A9A62FB68DB6B3D4ADA62FB68DB6B76
:1051A0003C4A1A63FB68DB6B00225A6307F1080371
:1051B000FB65FB68D86BFB681B6804331946FB6D05
:1051C0001A68FB88FEF7C4F900233B61FB681B6883
:1051D0001B683B61FB681B685B683B613B69FB6864
:1051E0001B69002B19D0FB681B680C333B643B6CBC
:1051F00053E8003FFB63FB6B43F48073BB65FB68C4
:105200001B680C33BA6DFA64BB64B96CFA6C41E884
:1052100000237B647B6C002BE5D1FB681B68143397
:10522000FB62FB6A53E8003FBB62BB6A43F00103C9
:105230007B65FB681B6814337A6DBA637B63796B9B
:10524000BA6B41E800233B633B6B002BE5D1FB6865
:105250001B681433BB61BB6953E8003F7B617B690A
:1052600043F040033B65FB681B6814333A6D7A6278
:105270003B62396A7A6A41E80023FB61FB69002BD3
:10528000E5D1002318466037BD4680BD434E000877
:105290006F4F0008AB4F000880B489B000AF786052
:1052A0007B681B680C33FB60FB6853E8003FBB6006
:1052B000BB6823F0C003FB617B681B680C33FA6991
:1052C000BA617B617969BA6941E800233B613B6956
:1052D000002BE5D17B68202283F8412000BF2437D2
:1052E000BD4680BC704780B495B000AF78607B68E5
:1052F0001B680C337B637B6B53E8003F3B633B6B6A
:1053000023F49073FB647B681B680C33FA6C3A647B
:10531000FB63F96B3A6C41E80023BB63BB6B002B6A
:10532000E5D17B681B6814333B623B6A53E8003F5E
:10533000FB61FB6923F00103BB647B681B681433CA
:10534000BA6CFA62BB62B96AFA6A41E800237B620E
:105350007B6A002BE5D17B681B6B012B19D17B6825
:105360001B680C33FB60FB6853E8003FBB60BB6805
:1053700023F010037B647B681B680C337A6CBA6182
:105380007B617969BA6941E800233B613B69002B85
:10539000E5D17B68202283F842207B6800221A63D3
:1053A00000BF5437BD4680BC704780B584B000AFA5
:1053B00078607B685B6AFB60FB680022DA85FB68CB
:1053C0000022DA84F868FFF733FD00BF1037BD46CE
:1053D00080BD80B485B000AF78607B6893F84130C1
:1053E000DBB2212B3ED17B689B68B3F5805F14D183
:1053F0007B681B69002B10D17B681B6AFB60FB6814
:105400001B881A467B681B68C2F308025A607B68D7
:105410001B6A9A1C7B681A6208E07B681B6A591C2D
:105420007A6811621A787B681B685A607B68DB8C2B
:105430009BB2013B9BB27A681946D184002B0FD1F5
:105440007B681B68DA687B681B6822F08002DA6080
:105450007B681B68DA687B681B6842F04002DA6090
:10546000002300E0022318461437BD4680BC704775
:1054700080B582B000AF78607B681B68DA687B68B3
:105480001B6822F04002DA607B68202283F841200A
:105490007868FFF7BBFC002318460837BD4680BD7F
:1054A00080B58CB000AF78607B6893F84230DBB297
:1054B000222B40F0AE807B689B68B3F5805F17D1EC
:1054C0007B681B69002B13D10023FB627B689B6AFE
:1054D000BB627B681B685B689BB2C3F308039AB22C
:1054E000BB6A1A807B689B6A9A1C7B689A6226E07A
:1054F0007B689B6AFB620023BB627B689B68B3F599
:10550000805F07D07B689B68002B0AD17B681B6992
:10551000002B06D17B681B685B68DAB2FB6A1A70E5
:1055200008E07B681B685B68DBB203F07F03DAB2DC
:10553000FB6A1A707B689B6A5A1C7B689A627B685C
:10554000DB8D9BB2013B9BB27A681946D185002B5B
:105550005DD17B681B68DA687B681B6822F02002DB
:10556000DA607B681B68DA687B681B6822F48072EB
:10557000DA607B681B685A697B681B6822F001024D
:105580005A617B68202283F842207B6800225A639C
:105590007B681B6B012B35D17B6800221A637B680B
:1055A0001B680C337B617B6953E8003F3B613B69BF
:1055B00023F010037B627B681B680C337A6A3A62C3
:1055C000FB61F9693A6A41E80023BB61BB69002BC2
:1055D000E5D17B681B681B6803F01003102B0AD110
:1055E0000023FB607B681B681B68FB607B681B6893
:1055F0005B68FB60FB687B689B8D19467868FBF7EE
:10560000F5FD02E07868FBF7DFFD002302E00023F0
:1056100000E0022318463037BD4680BD80B584B017
:1056200000AF78607B681B681B6923F440517B687E
:10563000DA687B681B680A431A617B689A687B6832
:105640001B691A437B685B691343BB607B681B68FB
:10565000DB6823F4B05323F00C037A681268B9684E
:105660000B43D3607B681B685B6923F440717B68E4
:105670009A697B681B680A435A617B681B682C4ADD
:10568000934203D1FEF726FFF86002E0FEF70EFF1B
:10569000F860FA6813469B0013449A001A447B682A
:1056A0005B689B00B2FBF3F3224AA2FB03235B0976
:1056B0001901FA6813469B0013449A001A447B6848
:1056C0005B689B00B2FBF3F21A4BA3FB02035B097E
:1056D000642000FB03F3D31A1B013233154AA2FBEB
:1056E00003235B0903F0F0031944FA6813469B0097
:1056F00013449A001A447B685B689B00B2FBF3F288
:105700000C4BA3FB02035B09642000FB03F3D31AD9
:105710001B013233074AA2FB03235B0903F00F028C
:105720007B681B680A449A6000BF1037BD4680BD85
:10573000003801401F85EB51002B2DE9F0471D4635
:10574000BBBF03F100431D4600232D2388B0144640
:10575000B8BF1446129A109E1370149BDDF84CA02B
:1057600023F02008B8F1460F05D0B8F1450F00D15D
:105770000136022300E0032307AA049206AACDE91A
:1057800002A2CDE9003622462B4601F0C9FFB8F14E
:10579000470F074619D1119BDB070ED500EB060911
:1057A0000022002320462946FBF7FEF808B1CDF879
:1057B0001C903022079B4B451ED33846079B159AF9
:1057C000DB1B136008B0BDE8F087B8F1460F00EBB3
:1057D0000609E5D10378302B0AD1002200232046A8
:1057E0002946FBF7E1F818B9C6F10106CAF80060CE
:1057F000DAF800309944D3E7591C07911A70D9E7B9
:10580000F7B50029B6BF2D232B2349420929027081
:10581000437029DD0DF107031D460A27B1FBF7F69A
:105820001A4607FB1614303402F8014C0C46632C60
:10583000314603F1FF33F1DC3031941E03F8011CD3
:105840002346411CAB420AD30DF109039B1AAC421B
:1058500088BF002302330344181A03B0F0BD13F8C5
:10586000016B01F8016FEDE7302330318370C170B7
:10587000031DF1E72DE9F04F91B00C46DDF868808B
:1058800016461F46054601F01DFE0368184608939C
:10589000FAF75EFC00230E93D8F800300990073326
:1058A00023F0070303F1080294F818A0D4F800B01D
:1058B000C8F80020D3E9008929F000430B93CDF804
:1058C00028804FF0FF32DDE90A01C4E912899C4BC0
:1058D000FBF79CF870BBDDE90A014FF0FF32984BF3
:1058E000FBF776F830BB0022002340464946FBF721
:1058F00065F810B12D2384F84330924A924BBAF1E7
:10590000470F94BF9046984603234FF00009236148
:105910002BF00403236033462146284600970FAA44
:1059200000F0D4F9013040F090804FF0FF3011B01A
:10593000BDE8F08F42464B4640464946FBF766F8C5
:1059400048B14B46002BB8BF2D23804AB8BF84F81E
:1059500043307F4BD3E763680AF0DF015A1C3FD125
:105960000623636000224BF48063236006920EAA34
:10597000CDE904A20DAA03920DF13302CDE9013263
:1059800063684246009328464B460A91FFF7D4FECF
:105990000A99804647290D9928D1C81C02DB636803
:1059A000994240DDAAF1020A5FFA8AFA52460139A9
:1059B00004F150000D91FFF723FF0E9A8146131852
:1059C000012A236102DC2268D20701D50133236159
:1059D0009DF83330002B9ED02D2384F843309AE776
:1059E0004729BFD1002BBDD10123BAE7BAF1650F1A
:1059F000DCD9BAF1660F18D1002963680BDD21618B
:105A000013B92268D00702D501330B4423614FF04C
:105A10000009A165DCE713B92268D20701D502337A
:105A2000F4E70123F2E74FF0670A0E9B994205DB8A
:105A300023682161D807EAD54B1CE7E70029CCBFD2
:105A40000122C1F102021344E0E723685A0507D49A
:105A50002369424631462846B84701302BD164E7D6
:105A6000BAF1650F40F2DC80D4E912010022002374
:105A7000FAF79AFF002833D0012331462846354AE9
:105A8000B84701303FF451AFDDE90D38434502DB43
:105A90002368D8070FD5DDE9082331462846B847E3
:105AA00001303FF442AF4FF0000908F1FF3804F134
:105AB0001A0AC84509DC23689B0700F10281E068E7
:105AC0000F9B9842B8BF184631E701235246314632
:105AD0002846B84701303FF428AF09F10109E8E74B
